:100000000C94A6040C94ED040C94ED040C94ED04F3
:100010000C94ED040C94ED040C94ED040C94ED049C
:100020000C94ED040C94ED040C9416280C94D22737
:100030000C940E290C94ED040C94ED040C94ED0436
:100040000C94ED040C94ED040C94ED040C94ED046C
:100050000C94ED040C94EA280C94ED040C94ED043B
:100060000C94ED040C9456300C942F300C94ED0449
:100070000C94ED040C94ED040C94ED040C94ED043C
:100080000C94ED040C94ED040C94ED040C94ED042C
:100090000C94ED040C94ED040C94ED040C94ED041C
:1000A0000C94ED040C94ED040C94ED04050109028C
:1000B000A10185020901A1000509190129081500FE
:1000C0002501950875018102050109300931158165
:1000D000257F95027508810609381581257F9501D0
:1000E00075088106050C0A38021581257F95017572
:1000F000088106C0C005010980A101850319012AF4
:10010000B700150126B700950175108100C0050CD8
:100110000901A101850419012AA002150126A002E6
:10012000950175108100C00660FF0961A101096297
:10013000150026FF00952075088102096315002629
:10014000FF00952075089102C005010906A101056F
:100150000719E029E7150025019508750181029529
:1001600001750881010507190029FF150026FF0008
:100170009506750881000508190129059505750181
:100180009102950175039101C00D0A002D004154A3
:100190002B424C454B4559424F415244434F4445F5
:1001A0003D000D0A0041542B424C45484944434F01
:1001B0004E54524F4C4B45593D30780041542B42E0
:1001C000415544524154453D37363830300D0A00D0
:1001D00041545A0D0A0041542B4741504445564E54
:1001E000414D453D42494F492053414D49434520EA
:1001F000424C450D0A0041542B48574D4F44454C45
:1002000045443D44495341424C450D0A0041542B5D
:10021000424C45504F5745524C4556454C3D340D88
:100220000A0041542B424C454B4559424F415244E0
:10023000454E3D310D0A0041542B424C454241543C
:1002400054454E3D310D0A0041542B424C4548491E
:1002500044454E3D310D0A0041542B485747504903
:100260004F4D4F44453D352C300D0A004154453D1E
:10027000300D0A0041542B464143544F52595245C8
:100280005345540D0A000D0A000D0A000D0A0041E5
:10029000542B42415544524154453D393630300D7E
:1002A0000A000D0A0041542B424155445241544525
:1002B0003D393630300D0A000D0A0041542B4241C1
:1002C0005544524154453D393630300D0A000D0A2F
:1002D0000041542B42415544524154453D3936303A
:1002E000300D0A000D0A000D0A000D0A0041542BC2
:1002F00042415544524154453D393630300D0A0093
:100300000D0A0041542B48574144433D360D0A0025
:100310000D0A000D0A000D0A0041542B424C454BBA
:100320004559424F415244434F44453D30302D30B2
:10033000300D0A0041542B424C454B4559424F4128
:100340005244434F44453D30302D30300D0A00417A
:10035000542B424C454B4559424F415244434F4424
:10036000453D30302D30300D0A000D0A000D0A00D9
:100370000D0A000001010101010101010102020257
:100380000202020202020303030303030303040441
:10039000040404040405050505050606060606070B
:1003A0000707070708080808090909090A0A0A0BC4
:1003B0000B0B0C0C0C0D0D0D0E0E0E0F0F0F101065
:1003C00011111112121313141415151616171718EC
:1003D0001819191A1A1B1B1C1D1D1E1E1F20202157
:1003E0002222232424252626272829292A2B2C2D9E
:1003F0002D2E2F30313232333435363738393A3BBF
:100400003C3D3E3F404142434445464748494A4CB3
:100410004D4E4F50515354555658595A5B5D5E5F7F
:10042000616264656668696B6C6D6F707273757715
:10043000787A7B7D7E8082838587888A8C8E8F9177
:10044000939596989A9C9EA0A2A3A5A7A9ABADAFA1
:10045000B1B3B5B7BABCBEC0C2C4C6C9CBCDCFD18B
:10046000D4D6D8DBDDDFE2E4E7E9EBEEF0F3F5F834
:10047000FAFDFFFFAA7F55401E0F0500047F3F1FB6
:10048000643214643214783C1E1E140A052223259B
:100490002628292A2C2D2F3032333536383A3B3D49
:1004A0003E4042434547494A4C4E50515355575997
:1004B0005A5C5E6062646668696B6D6F71737577B4
:1004C000797B7D7F81838587898A8C8E90929496B3
:1004D000989A9C9E9FA1A3A5A7A8AAACAEAFB1B3C2
:1004E000B4B6B8B9BBBCBEBFC1C2C3C5C6C7C9CA12
:1004F000CBCCCDCED0D1D2D2D3D4D5D6D7D7D8D9D4
:10050000D9DADADBDBDBDCDCDCDCDCDDDDDDDDDC31
:10051000DCDCDCDCDBDBDBDADAD9D9D8D7D7D6D543
:10052000D4D3D2D2D1D0CECDCCCBCAC9C7C6C5C305
:10053000C2C1BFBEBCBBB9B8B6B4B3B1AFAEACAA52
:10054000A8A7A5A3A19F9E9C9A98969492908E8C02
:100550008A89878583817F7D7B79777573716F6DDC
:100560006B6968666462605E5C5A595755535150B6
:100570004E4C4A4947454342403E3D3B3A3836356A
:100580003332302F2D2C2A292826252322290035E5
:10059000001F002000210022002300240025002647
:1005A0000027002D002E002A0035004B002B001ED6
:1005B000001A000800150017001C0018000C00129B
:1005C0000013002F00300031004E00E00014001630
:1005D00000070009000A000B000D000E000F003399
:1005E000003400280001510000E10004001B000657
:1005F0000019000500050011001000360037003812
:1006000000E500E4000000E3001D00E2002C000013
:1006100000E70000002C000000E6000000000000E1
:1006200000000001000100010001000100010001C3
:1006300000010001000100010001000100010001B2
:1006400000010001000100010001000100010001A2
:100650000001000100010001000100010001000192
:100660000001000100010001000100010001000182
:100670000001000100010001000100010000000173
:100680000001000100010001000100010001000162
:100690000001000100010001000100000001000153
:1006A0000001000100000001000000010000000145
:1006B0000000000000000000000100010001000136
:1006C0000001000100010001000100010001000122
:1006D0000001000100010001000100010001000112
:1006E0000001000100010001000100010001000102
:1006F00000010001000100010001000100010001F2
:1007000000010001000100010001000100010001E1
:1007100000010000000100010001000100010001D2
:1007200000010001000100010001000100010001C1
:1007300000000001000100010001000000010000B4
:1007400000010000000100000000000000000001A6
:100750000001000100010001000100010001000191
:100760000001000100010001000100010001000181
:100770000001000100010001000100010001000171
:100780000001000100010001000100010001000161
:100790000001000100010001000100010001000151
:1007A0000001000100010001000000010001000142
:1007B0000001000100010001000100010001000131
:1007C0000001000100010000000100010001000122
:1007D0000000000100000001000000010000000016
:1007E0000000000000000000000000000000000009
:1007F00000000000000000000000000000000000F9
:100800000000000000000000007E0F00D4FFFFFF8A
:10081000C70000007800000000000000002A2B281C
:1008200000000000000000000000000000000000C8
:1008300029000000002C1E342021222434262725E4
:100840002E362D3738271E1F20212223242526331C
:1008500033362E37381F0405060708090A0B0C0D1E
:100860000E0F101112131415161718191A1B1C1D30
:100870002F3130232D350405060708090A0B0C0D0E
:100880000E0F101112131415161718191A1B1C1D10
:100890002F3130354C09025B00030100A0FA090436
:1008A00000000103010100092111010001224000A3
:1008B0000705810308000A09040100020300000083
:1008C00009211101000122220007058203200001F5
:1008D00007050303200001090402000103000000D2
:1008E000092111010001227B000705840320000A71
:1008F00012011001000000080181495301000102AA
:1009000000011803420049004F0049002000530035
:1009100041004D0049004300450000002A03420009
:100920006100730069006300200049004F0020004F
:1009300049006E0073007400720075006D00650060
:100940006E007400730000000403090411241FBE2C
:10095000CFEFDAE0DEBFCDBF04B603FE27C0809143
:10096000830390918403A0918503B091860387301F
:10097000904BA740B04BD1F41092830310928403A4
:10098000109285031092860314BE84B7877F84BFBC
:100990000FB6F894A89580916000886180936000FC
:1009A000109260000FBEE0E0F8E3099523E0ACEDA3
:1009B000B1E001C01D92A338B207E1F711E0A0E059
:1009C000B1E0E2E4FEE602C005900D92AC3DB10755
:1009D000D9F70E9431290C9495360C940000E8ED6B
:1009E000F0E080818E7F80831092E2001092DA0026
:1009F0001092E100A0EEB0E08C9181608C93808138
:100A00008F77808319BCA7EDB0E08C918E7F8C939B
:100A100080818F7E808310924E0308952091E400A0
:100A20003091E50095E6A9012091EC00822F8170BC
:100A300020FF06C08091E80080FF06C080E0089596
:100A40002091E80022FD1AC080915B03882389F081
:100A5000853089F08091EB0085FD0FC02091E40086
:100A60003091E50042175307F9F29150E1F684E026
:100A7000089582E0089583E0089581E00895EF925B
:100A8000FF920F931F93CF937C018B010E940E0561
:100A9000C82F811117C08091E80085FD0BC080919F
:100AA000E8008E778093E8000E940E05882399F372
:100AB000C82F08C0F70181917F018093F100015098
:100AC000110949F78C2FCF911F910F91FF90EF9053
:100AD000089580915D0387FF13C08091E80082FF35
:100AE00006C08091E8008B778093E80004C0809175
:100AF0005B038111F2CF089580915B038823D9F3C2
:100B00008091E80080FFF8CF8091E8008E77ECCFED
:100B1000982F9093E900242F762F50E0891731F019
:100B20007091EC002091ED005091F00021FD07C084
:100B30009F5F973071F78093E90081E008953091CD
:100B4000EB003E7F3093EB003091ED003D7F309322
:100B5000ED003091EB0031603093EB007093EC00CE
:100B60002093ED005093F0002091EE0027FDE0CFA0
:100B700080E00895CF92DF92EF92FF920F931F9340
:100B8000CF93DF93C8EDD0E088818F7E8883E7ED37
:100B9000F0E080818160808384E082BF81E0809387
:100BA0004E0388818E7F888302EE10E0F801108268
:100BB0001092DA0081EEC82ED12CF60110828881C5
:100BC0008F77888388818068888388818F7D8883F8
:100BD00019BC10925B0310925C0310925A0310929E
:100BE000590390EEE92EF12CF70180818B7F8083F1
:100BF00088818160888342E060E080E00E9488050F
:100C0000F60180818E7F8083F801808181608083FE
:100C1000808188608083F70180818E7F80838881D6
:100C200080618883DF91CF911F910F91FF90EF90AA
:100C3000DF90CF900895FC0180916303909164034D
:100C400086179707A0F06115710529F49091E800C7
:100C50009E779093E80090E06115710551F4911131
:100C600008C08091E80082FF34C080E00895BC0194
:100C7000F2CF80915B038823C1F18530C1F180916F
:100C8000E80083FD30C08091E80082FDEACF8091CA
:100C9000E80080FFE1CF8091F3002091F200382F2F
:100CA0006115710519F02830310558F091E02830B0
:100CB000310509F090E02091E8002E772093E800BC
:100CC000CBCF81918093F100615071092F5F3F4F2D
:100CD000E7CF80915B03882341F0853041F080911C
:100CE000E80083FFBECF81E0089582E0089583E0AD
:100CF00008958091500308959C014FB7F894809116
:100D00004A0390914B03A0914C03B0914D034FBF08
:100D1000821B930B08952FB7F89460914A0370914A
:100D20004B0380914C0390914D032FBF08952FB733
:100D3000F89480914A0390914B03A0914C03B09199
:100D40004D032FBF08958823E1F181E08093820352
:100D50000E94970690938103809380038091800383
:100D6000909181030E947C06069778F1809176032A
:100D70009091770390936D0380936C038091780337
:100D80009091790390936F0380936E0380917A031F
:100D900090917B03909371038093700380917C0307
:100DA00090917D03909373038093720380917E03EF
:100DB00090917F0390937503809374031092820344
:100DC00004C0809182038111C9CF089580E0089505
:100DD0008091450381111092450308958091440349
:100DE00090914303892B90914203892B8093DE01DC
:100DF00090914503992391F0892B8093DE0120E0A7
:100E000080EE91E0FC013191CF0131112F5FF1E0D3
:100E1000863E9F07B9F721110E94E806E091400342
:100E2000F0914103309731F00280F381E02D8EED97
:100E300091E009940895E0EEF1E09191891303C0E7
:100E4000DF0111971C9291E0E63EF907B1F7089592
:100E5000A0EEB1E0EFEF90E02D91821751F0EF3F5F
:100E600019F4211101C0E92F9F5F9630A9F7EF3FD8
:100E700009F408950E2E000CFF0BE252FE4F828300
:100E800008952FE0929F800D1124982F97708695DA
:100E90008695869525E0829FF0011124E35FFC4F43
:100EA00050E040E080E0219130E0092E02C036950C
:100EB00027950A94E2F721703327042E01C0220FF0
:100EC0000A94EAF7822B4F5F5F4F4530510559F77F
:100ED00008952FE0929F800D1124982F977041E084
:100EE00001C0440F9A95EAF786958695869595E018
:100EF000899FF0011124E35FFC4F90E080E070E0F7
:100F00005191DF0111979B01082E02C0369527955C
:100F10000A94E2F7217021952527242325272C9375
:100F200001968530910561F7089580910C039091A9
:100F3000DB02981301C008958F5F8770FACF882372
:100F400041F08095909144038923809344030C944D
:100F5000EE060895882339F090914403982B9093DE
:100F600044030C94EE0608952091C0023091C10212
:100F70002817390771F09093C1028093C002E09165
:100F80004003F0914103309721F00084F185E02D7A
:100F9000099408952091BE023091BF0228173907A5
:100FA00071F09093BF028093BE02E0914003F091F4
:100FB0004103309721F00680F781E02D09940895D0
:100FC000E0914003F0914103309721F00190F081CE
:100FD000E02D099480E00895FA01811101C0FB0120
:100FE00009940F931F93CF93DF938091420288233C
:100FF00009F496C080914102E091C502E695E81B94
:10100000E0933D02823091F5F0E0E757FB4FE49129
:10101000CE2FD0E00BE810E180913E02882361F0F2
:1010200010923E020E94970690933C0280933B02EE
:101030001092400210923F020E949706E0913B02FC
:10104000F0913C028E1B9F0B8F3F9F4708F068C0BA
:10105000EC0FFD1FF0933C02E0933B028BE392E028
:10106000F801DF91CF911F910F910994863049F4D7
:10107000F0E0EA57FB4FE491CE2FD0E00BE710E110
:10108000CBCF893051F4E695F0E0ED57FB4FE4917A
:10109000CE2FD0E007EE1FE0BFCF8F3051F4E695A2
:1010A000F0E0E058FB4FE491CE2FD0E009E71FE0DD
:1010B000B3CF853149F4F0E0E358FB4FE491CE2FF4
:1010C000D0E00BE21FE0A8CFC8E2D0E002EA1EE0C9
:1010D000883109F4A1CF833239F4EBE7F4E0C5910C
:1010E000D49102E210E198CFC4EFD1E009E61EE00E
:1010F000843209F491CFC0EDD7E006E918E08532DB
:1011000009F08ACF8E2F63E00E948630E92FF0E04D
:10111000E858FB4FE491CE2FD0E003E51AE17CCFF5
:10112000DF91CF911F910F910895089508958091B7
:10113000C502982F9E7F61F4817082608093C50202
:101140008091C80287FF03C08FE78093C80208958B
:101150008635B0F381708465F1CFAF92BF92DF9294
:10116000EF92FF920F931F93CF93DF93082F162FC9
:10117000E90147FD4FE7E42FF0E0ED58FC4F111176
:1011800010C0E4915E2F4E2F4983E8835A83DF918C
:10119000CF911F910F91FF90EF90DF90BF90AF9094
:1011A0000895E12EF12C4491D42EE42FF0E026E0B6
:1011B000029FC00111242FEF30E0B9010E94A0303E
:1011C000802F90E0880F991F55E5569FD001579FBB
:1011D000B00D11248A1B9B0B982F990F890F590171
:1011E000AE18BF08AE9ED001AF9EB00DBE9EB00D32
:1011F00011245B2F189F80011124012F1127590101
:10120000A01AB10AAE9E8001AF9E100DBE9E100DB9
:1012100011245901A81AB108AE9CC001AF9C900DD1
:10122000BE9C900D1124892F9927281B390B2E9FC6
:10123000C0012F9F900D3E9F900D1124E92F623029
:101240007105A1F050F46115710509F49DCF61306D
:10125000710581F0EB2F512F97CF6430710569F044
:1012600080F06630710509F48FCFF4CFE42F4B2F57
:10127000592F8ACFE42F412F87CFEB2F542F492F9F
:1012800083CF4B2F5D2DE12F7FCF0E9497069C01CE
:101290009091D1028091D202982B21F030933A02A2
:1012A000209339029091D3028091D402982B21F09F
:1012B0003093380220933702E0914003F0914103CC
:1012C000309749F082E08093CF020480F581E02DD1
:1012D0008FEC92E00994089590E080E00E94CA07A4
:1012E00090E080E00E94B407109243031092420302
:1012F0000E94EE0686E0EFECF2E0DF011D928A9597
:10130000E9F71092CE021092CD021092CC020C940A
:101310004509609365037093660380936703909318
:1013200068030C946C090F931F936091650370918F
:10133000660380916703909168038B019C0106709E
:10134000112722273327063011052105310529F4FD
:1013500068601F910F910C948909677FFACF0F93F2
:101360001F9341E050E060E070E004C0440F551F5F
:10137000661F771F8A95D2F7CB01BA0160957095E9
:101380008095909500916503109166032091670305
:101390003091680360237123822393231F910F915F
:1013A0000C94890990913F038095892380933F0392
:1013B000282F277071F4282F082E000C330B92175A
:1013C000130639F08595859585950E94AF09109291
:1013D0003F0308950F931F9341E050E060E070E0F9
:1013E00004C0440F551F661F771F8A95D2F780915E
:1013F000650390916603A0916703B09168038A0129
:101400009B01082B192B2A2B3B2BC901B8011F91DB
:101410000F910C948909609346037093470380935E
:101420004803909349030C946C094091D102803F8A
:1014300059F48091D20287FF0DC01092D20241115F
:101440000BC01092CE0208C0813F81F48091D2027D
:1014500018169CF3442381F08091D3029091D4021A
:10146000892B09F05AC01092CD020895823F49F4A9
:1014700047FFF0CF1092D1028091D2028111ECCFC0
:10148000E0CF833F19F41416ACF3E4CF9091D3026C
:10149000893F29F41916F4F61092D302DBCF8A3F64
:1014A00019F497FFD7CFF8CF9091D4028B3F29F44E
:1014B00097FFD0CF1092D402CDCF8C3F19F41916DC
:1014C000CCF3C8CF9CE0980F953090F4845F990BD3
:1014D00021E030E0B90102C0660F771F8A95E2F77C
:1014E000CB0180959091D00289238093D002B2CF16
:1014F0008D3F31F48091CC028E7F8093CC02AACFB5
:101500008E3F21F48091CC028D7FF7CF8F3F09F081
:10151000A1CF8091CC028B7FF0CF0895882309F46E
:1015200059C0823871F40E94E00781FF53C089E3FB
:101530000E9428070E94EE0689E30E941B070C9474
:10154000EE06833859F40E94E00780FF43C083E52C
:101550000E9428070E94EE0683E5EFCF843859F4F5
:101560000E94E00782FF36C087E40E9428070E949D
:10157000EE0687E4E2CF9CEF980F913AF0F290E20A
:10158000980F983088F4877021E030E0A90102C0FC
:10159000440F551F8A95E2F7CA0180959091440344
:1015A000892380934403CBCF9BE5980F933020F49D
:1015B00090E080E00C94CA0798E5980F973120F4EA
:1015C00090E080E00C94B407803F20F00E94150A60
:1015D0000C94450908958091CC0280FF0CC0609165
:1015E000270170E07595679575956795611571058B
:1015F00049F1862F089581FF06C06091270170E0B0
:1016000075956795F3CF6091270182FD0BC090918E
:10161000CD029923A1F060912601809127019617B0
:1016200038F0682F70E06038710500F38FE7089597
:10163000899FC001112470E00E94B430F4CF61E0B2
:1016400070E0D7CF81E008958091CC0280FF12C076
:101650006091290185E0689FB00111247595679517
:101660007595679560387105A8F561157105A1F14B
:10167000862F089581FF09C06091290185E0689F48
:10168000B001112475956795EDCF6091290182FD18
:101690000AC08091CE028823D1F0909128016091F8
:1016A0002901891728F085E0689FB0011124DACF5D
:1016B000869FB001112485E0869F9001879F300DA1
:1016C0001124692F70E0C9010E94B430CBCF65E0CE
:1016D00070E0CECF8FE7089581E00895803F31F428
:1016E0000E94240B81958093D2020895813F19F4C2
:1016F0000E94240BF8CF823F31F40E94240B819585
:101700008093D1020895833F19F40E94240BF8CFEF
:10171000893F29F40E94EB0A8093D30208958A3FFF
:1017200021F40E94EB0A8195F7CF8B3F31F40E94A0
:10173000EB0A81958093D40208958C3F19F40E949E
:10174000EB0AF8CF9CE0980F953070F4845F990B0A
:1017500021E030E001C0220F8A95EAF78091D002A3
:10176000822B8093D00208958D3F31F48091CC027A
:1017700081608093CC0208958E3F21F48091CC0249
:101780008260F7CF8F3FB9F78091CC028460F1CFB0
:10179000833011F128F4813049F0823091F00895BE
:1017A000853081F120F18630C1F1089580912B01BF
:1017B000681720F4861B80932B01089510922B014B
:1017C000089580912A01681720F4861B80932A01CE
:1017D000089510922A01089580912901681720F434
:1017E000861B809329010895109229010895809104
:1017F0002801681720F4861B809328010895109211
:101800002801089580912701681720F4861B809392
:1018100027010895109227010895809126016817E5
:1018200020F4861B809326010895109226010895C6
:10183000833081F128F4813059F08230D1F008955D
:10184000853009F449C0B8F1863009F456C00895CE
:1018500080912B01482F460F5527551F4F3F5105AB
:1018600024F4680F60932B0108958FEF80932B0170
:10187000089580912A01482F460F5527551F4F3F45
:10188000510524F4680F60932A0108958FEF809327
:101890002A01089580912901482F460F5527551F89
:1018A0004F3F510524F4680F6093290108958FEF8D
:1018B00080932901089580912801482F460F5527CC
:1018C000551F4F3F510524F4680F60932801089578
:1018D0008FEF80932801089580912701482F460FAC
:1018E0005527551F4F3F510524F4680F609327017A
:1018F00008958FEF80932701089580912601482F46
:10190000460F5527551F4F3F510524F4680F60932C
:10191000260108958FEF8093260108957894089505
:10192000F894E82FE295EF70F0E031A1282F2F70A6
:1019300081E090E001C0880F2A95EAF7982F9095F2
:10194000932391A392A1892B82A30C948E0C909146
:10195000C20292FF06C0282F28712830F9F4877F31
:10196000846093FF06C0282F28712831F1F4877E08
:1019700084612091C30220FF06C0382F38713830AF
:10198000D9F4877F816021FF06C0282F2871283174
:10199000D1F4877E816194FD877E0895282F24717C
:1019A0002430F9F68B7F8860DCCF282F2471243116
:1019B00001F78B7E8861DDCF382F3171313019F717
:1019C0008E7F8860E0CF282F2171213121F78E7E14
:1019D0008861E1CF81FF03C0769A81E0089576980F
:1019E000FCCF0E948B0660931302709314028093C5
:1019F000150290931602089580E890E00FB6F894CF
:101A000080936100909361000FBE0895E4E6F0E0DA
:101A10008081877F808380818F7B8083A5E6B0E093
:101A20008C91877F8C93A8EDB0E08C9180688C932B
:101A300089B5826089BD8C918F7D8C9380818E7FEA
:101A4000808380818F77808380818B7F808380817A
:101A50008D7F80830895E4E6F0E08081816080835B
:101A600080818068808380818460808380818260BF
:101A70008083E8EDF0E080818062808389B58D7F8E
:101A800089BD80818F7780830895089580E00895CF
:101A90002091F70130E02F5F3F4F2F703327909157
:101AA000F60192171306D9F3F901EA51FE4F80832C
:101AB0002093F7018091C90080628093C900089546
:101AC000CF93DF93EC01FE0184912196811103C035
:101AD000DF91CF9108950E94480DF5CFCF93DF930A
:101AE000EC01F8941092F7011092F60110920C029A
:101AF00010920B020E948E0C82E08093C80010921C
:101B0000CD00DF77C093CC0088E98093C90086E0E0
:101B10008093CA00DF91CF910895CF93DF9300D0D7
:101B20000F92CDB7DEB790915B03943011F58983A6
:101B30007B836A839093E9008FEF9091E800815056
:101B400095FD06C09AE69A95F1F700C08111F5CF90
:101B50008091E80085FF0DC050E040E063E070E058
:101B6000CE0101960E943F058091E8008E77809318
:101B7000E8000F900F900F90DF91CF910895BC0176
:101B800084E00C948D0DBC0183E00C948D0D9C01C0
:101B900084E08093E9009FEF8091E800915085FDFB
:101BA00006C08AE68A95F1F700C09111F5CF8091C1
:101BB000E80085FF0CC050E040E066E070E0C9013D
:101BC0000E943F058091E8008E778093E800089599
:101BD000CF93DF93EC0181E08093E9008FEF909148
:101BE000E800815095FD06C09AE69A95F1F700C08D
:101BF0008111F5CF8091E80085FF14C050E040E0EE
:101C000068E070E0CE010E943F058091E8008E7789
:101C10008093E80088E0FE01A1E5B3E001900D9219
:101C20008A95E1F7DF91CF91089581E08093E000FC
:101C300080E28093D8001092C9008FE097E201976C
:101C4000F1F700C0000087E090EBDC018093830394
:101C500090938403A0938503B093860388E19CE06E
:101C60000FB6F894A895809360000FBE9093600023
:101C7000FFCF8091C50280FD0AC0E6E4F2E0118248
:101C800010821282339652E0E337F507C1F73F9A8C
:101C900038B13F7728B120684FB7F89486E492E0D6
:101CA000FC015191CF0168E028B957FF38B9550FB1
:101CB000000000C038B96A95B9F7F2E083379F0792
:101CC00079F74FBF8FE292E00197F1F700C0000073
:101CD0000895EF92FF920F931F93CF93DF938C01A0
:101CE000C6E4D2E0F12CE12CF80194816091C702A6
:101CF0008091C602F7E0EF16F104FCF49923F9F0A5
:101D00009E014091C8020E94AD082FEFE21AF20A2C
:101D100023968FE0E816F10439F70E94390EF80196
:101D2000848190E00196817099278483DF91CF911F
:101D30001F910F91FF90EF900895992309F39E0151
:101D400040E0E1CF8F929F92AF92BF92CF92DF920D
:101D5000EF92FF920F931F93CF93DF93EC014C818F
:101D6000042F10E09801D8010E94E3349B01AC01DC
:101D70000E94AE344B015C01E0E2F0E0E01BF10BAD
:101D8000A5E5B0E0AC019B010E94AE346B017C0183
:101D90009F01DF010E94D5309B01AC010E94B93444
:101DA0009B01AC01280D391D4A1D5B1DC701B60101
:101DB0000E94C134F22E822F90E039E23F15D8F113
:101DC00043E0249F9001112435952795122F1095FB
:101DD00096E4C92E92E0D92E00E085E5E82EEF18B2
:101DE0008E2D01FD8F2D9601412F6091C7020E941B
:101DF000AD080F5F53E0C50ED11C0F3089F70E946C
:101E0000390E9C8181E0992319F0903219F48FEFFB
:101E10008093250180912501890F8C83DF91CF91DB
:101E20001F910F91FF90EF90DF90CF90BF90AF90F8
:101E30009F908F90089525E530E0A901481B590B2C
:101E4000CA019A01220F331F280F391F37FFBCCF59
:101E50002F5F3F4FB9CF0F931F93CF93DF93C6E40C
:101E6000D2E0FE01118210821282339682E0E337C3
:101E7000F807C1F710E000E080914402082E000C42
:101E8000990B081719078CF180912401082E000C7A
:101E9000990B801791074CF19E014091C802609107
:101EA000C7028091C6020E94AD080F5F1F4F2396A4
:101EB0000F30110509F70E94390E8091230190918E
:101EC0004402980F9093440220912401280F2093FC
:101ED0002401121614F49E301CF081958093230186
:101EE000DF91CF911F910F910895198218821A8264
:101EF000DCCFBF92CF92DF92EF92FF920F931F93AE
:101F0000CF93DF93FC018281DD24DA9480FD02C04F
:101F1000DD24D39406E412E0D0E0C0E02FE0B22E3E
:101F2000F80111821082128294E0E92EF12CC12C6A
:101F3000809143028C0D80310CF43DC06B2D0E94CA
:101F40009230892F082E000C990B8C179D0791F465
:101F50008091C8028E9DA0018F9D500D1124559532
:101F600047955595479598016091C7028091C602A3
:101F70000E94AD08CD0CF1E0EF1AF108C9F62196E8
:101F80000D5F1F4FCF30D10559F60E94390E809159
:101F9000430291E0D91215C0811111C08EE08093E7
:101FA0004302DF91CF911F910F91FF90EF90DF904F
:101FB000CF90BF90089587FFC5CF815FC3CF815079
:101FC000EECF90E00196BE010E94B430E8CFEF92D0
:101FD000FF921F93CF93DF93EC0186E4E82E82E01B
:101FE000F82E10E08C8197014091C8026091C702E1
:101FF000810F0E94AD081F5E83E0E80EF11C1F3FB9
:1020000089F70E94390E9A818C8190FF08C08F5FFA
:102010008C83DF91CF911F91FF90EF9008958150B5
:10202000F7CF9091C50290FF0CC0E6E4F2E0818307
:1020300060834283339692E0E337F907C1F70C944B
:10204000390E08950F931F93CF93DF9300D00F9213
:10205000CDB7DEB78C018091450281110AC09E0187
:102060002F5F3F4F4FE76FEF0E94AD088A8180934B
:102070004502F8016481613069F08091450240E0D9
:10208000662361F040E0623011F44091450280E047
:1020900060E004C06091450240E080E00E941110C1
:1020A000F801848190E0019663E070E00E94B43012
:1020B00084830F900F900F90DF91CF911F910F911C
:1020C0000895CF93DF9300D00F92CDB7DEB79091F4
:1020D000C50290FF0AC09E012F5F3F4F0E94AD08CE
:1020E0004B8169818A810E9411100F900F900F908F
:1020F000DF91CF910895CF93DF93EC01E5ECF2E00F
:10210000438162818C810E9461108C818F5F8C83FE
:10211000DF91CF910895CF93DF93EC01EC81F0E054
:10212000E357FB4F4491E5ECF2E0628181810E942C
:1021300061108C818F5F8C83DF91CF9108958091A6
:10214000C50280FF03C02A980C94390E2A9A08957C
:10215000AF92BF92CF92DF92EF92FF920F931F93B5
:10216000CF93DF9302E511E0C6E7D3E0C12CD12C79
:10217000EE24E394F12CF80181918F01F894E82F7B
:10218000E295EF70F0E021A18F70A70102C0440F2B
:10219000551F8A95E2F7CA01922F982B91A392A11D
:1021A0008095892382A30E948E0C00C0E7E5F1E0B0
:1021B00030E020E0B12CA12C4191A42FA295AF706A
:1021C000B0E090968C9190E04F7002C09595879505
:1021D0004A95E2F780FD36C0C701022E02C0880F83
:1021E000991F0A94E2F7A82AB92A2F5F3F4F2F3090
:1021F000310511F7F801319780810E94900C54E06D
:10220000C51619F080E58A95F1F788819981A8169D
:10221000B906D9F0B982A88281E0D82AC39422965F
:10222000E5E0CE12A8CF8D2D0E94A3068D2DDF9163
:10223000CF911F910F91FF90EF90DF90CF90BF90C3
:10224000AF90089590E080E0CECF80E0E6CFCF93CE
:10225000DF93C2E0D0E080E093E00E94600D2FEFBA
:1022600080E792E0215080409040E1F700C00000FC
:102270008DEE92E00E94600D2FEF80E792E02150FA
:1022800080409040E1F700C0000088E090E80E94A4
:102290006E0D8AEE92E00E94600D87EE92E00E9441
:1022A000600D84EE92E00E94600D2FEF80E792E0D7
:1022B000215080409040E1F700C0000081ED92E0A5
:1022C0000E94600D2FEF80E792E021508040904007
:1022D000E1F700C000008CE090E80E946E0D8EECEB
:1022E00092E00E94600D2FEF80E792E02150804045
:1022F0009040E1F700C000008BEB92E00E94600D7F
:102300002FEF80E792E0215080409040E1F700C03D
:10231000000080E190E80E946E0D88EB92E00E9440
:10232000600D2FEF80E792E0215080409040E1F770
:1023300000C0000085EA92E00E94600D2FEF80E768
:1023400092E0215080409040E1F700C0000089E118
:1023500090E80E946E0D82EA92E00E94600D2FEFDD
:1023600080E792E0215080409040E1F700C00000FB
:102370008FE892E00E94600D2FEF80E792E02150FD
:1023800080409040E1F700C00000219709F0E5C0CF
:1023900087E690E80E946E0D8CE892E00E94600D46
:1023A0002FEF80E792E0215080409040E1F700C09D
:1023B000000089E892E00E94600D2FEF80E792E034
:1023C000215080409040E1F700C0000086E892E094
:1023D0000E94600D2FEF80E792E0215080409040F6
:1023E000E1F700C0000084E792E00E94600D2FEF4B
:1023F00084E39CE0215080409040E1F700C0000061
:10240000C2E0D0E08CE692E00E94600D2FEF80E702
:1024100092E0215080409040E1F700C0000088E544
:1024200092E00E94600D2FEF80E792E02150804003
:102430009040E1F700C0000088E492E00E94600D47
:102440002FEF80E792E0215080409040E1F700C0FC
:10245000000087E392E00E94600D2FEF80E792E09A
:10246000215080409040E1F700C0000082E292E0FD
:102470000E94600D2FEF80E792E021508040904055
:10248000E1F700C000008DE092E00E94600D2FEFA8
:1024900080E792E0215080409040E1F700C00000CA
:1024A00086EF91E00E94600D2FEF80E792E02150CF
:1024B00080409040E1F700C00000219709F050C033
:1024C0002FEF80E792E0215080409040E1F700C07C
:1024D000000086ED91E00E94600D2FEF80E792E012
:1024E000215080409040E1F700C0000080ED91E075
:1024F0000E94600D2FEF84E39CE0215080409040CB
:10250000E1F700C000008CEB91E00E94600D2FE726
:102510008AE196E0215080409040E1F700C0000041
:102520008CEB91E00E94600D2FE78AE196E021504C
:1025300080409040E1F700C000008CE090E80E94ED
:102540006E0D2FE78AE196E0215080409040E1F740
:1025500000C00000DF91CF910895C1E0D0E07BCEB4
:10256000C1E0D0E04FCFCF9384E090E00E944734A9
:10257000C82F81E290E00E944734982F8C2FCF9192
:1025800008950F931F93CF93DF93C42FD0E0CC0F08
:10259000DD1F2EE1629FC00DD11D112436E9839FFE
:1025A000C00DD11D1124CE0189960E944734082FF9
:1025B00010E0102F0027CE018A960E944734980120
:1025C000282BC901DF91CF911F910F910895462FBC
:1025D000843038F4753028F46F3018F4672F0C9479
:1025E000C11290E080E00895CF93DF930E94E7123C
:1025F000EC0182389105A9F1D8F58133910509F4F0
:1026000096C048F58932910509F48AC08A9709F481
:1026100095C0C11521E5D20708F0BCC0C11530E551
:10262000D30708F014C1C83ED10508F09CC0C03ED5
:10263000D10560F5C83AD10508F087C0C53AD10583
:1026400008F0FDC0C130D10509F12097F9F0C43080
:10265000D105E0F440C08533910509F45AC0C9970B
:10266000C1F68091C202837089F0C0EED0E00EC046
:10267000833E910599F170F4803E910501F1823E0F
:10268000910539F68091C20282FD21C0CE01DF9111
:10269000CF910895863E910561F1873E910571F1D4
:1026A000843E910509F0B5CF8091C30281FFEECF42
:1026B0008091C202C7EED0E084FD0DC0E7CF8091CB
:1026C000C20280FD12C19091C30290FFDFCFC3EE22
:1026D000D0E084FFDBCFD0E0C0E0D8CF8091C20251
:1026E00082FD06C19091C30290FDBFCF84FFCECF83
:1026F000F2CF8091C20283FDDDCFC8CF8091C202AC
:1027000083FDF9C09091C30291FFF0CFC4EED0E0F9
:10271000BDCF8091C20285FFB9CFC9E2D0E0B6CF6C
:102720008091C20285FFB2CFC5E3D0E0AFCF8091E8
:10273000C20286FFABCFCAE2D0E0A8CF8091C2022E
:1027400086FFA4CFC1E3D0E0A1CFCF3BD10518F6DF
:10275000C85AD0E0CC0FDD1FC256DE4F0990D88199
:10276000C02DD46493CFC11540E2D40758F4C115ED
:1027700081E0D80708F08ACFC03FD10508F4ABCF7D
:10278000D06584CFC11590E4D90708F4A4CFDF70D9
:10279000D06A7CCFC11525E5D20700F5C11534E517
:1027A000D30708F08AC0C11543E5D40708F071C00B
:1027B000C11582E5D80708F467C0CE018370992758
:1027C00021E030E002C0220F331F8A95E2F7C69560
:1027D000C69580E2C89FE001112452C0C11599E559
:1027E000D907A8F4C11528E5D20708F06BC0C115B8
:1027F00036E5D30708F06FCF8C2F0E94A70CC82FA7
:10280000D0E0DC2FCC27CC27DF71D0623FCFC115C1
:102810004AE5D40708F45BC0CE019056811590427A
:1028200008F059CF8D2F8F710E94A70C90E0982F40
:10283000882788279F719C012C2BE901E6CFC55A78
:10284000D0E0C556DE4FC881D0E0D0641FCFCE01A6
:10285000E4E096958795EA95E1F783702C2F26950D
:102860002695237040E2249F90011124382B8C2F51
:102870008370C1E0D0E002C0CC0FDD1F8A95E2F783
:10288000C22BD32BDC6802CFDC2FCC27C16FD06AE0
:10289000FDCECE018370992721E030E002C0220FE7
:1028A000331F8A95E2F7C695C69590E2C99FE0016D
:1028B0001124C22BD32BDA68E9CEDC2FCC27C46FCE
:1028C000D06AE4CEDC2FCC27C06FD06ADFCE8C2F4D
:1028D0008F700E94A70C34E0D695C7953A95E1F722
:1028E000CF709C2FEC01D069D1CEC9E3D0E0CECE21
:1028F000C2EED0E0CBCEC6EED0E0C8CEBF92CF9233
:10290000DF92EF92FF920F931F93CF93DF938C018F
:10291000C0906503D0906603E0906703F090680371
:102920008091460390914703A0914803B0914903D9
:10293000C82AD92AEA2AFB2ACFE1D0E0BC2ED70147
:10294000C6010C2E04C0B695A795979587950A9455
:10295000D2F780FD0EC0219788F7B12C8B2DDF9127
:10296000CF911F910F91FF90EF90DF90CF90BF908C
:102970000895B8018C2F0E94F412019761F3EECFF5
:10298000CF93DF93EC010E947E14BE01DF91CF91C3
:102990000C94F4120E94C014292F2F7092959F70EE
:1029A00092509E3078F4E92FF0E0E956F94C0C94FF
:1029B000C830803F19F020F4883E20F481E008956B
:1029C000843FE1F380E00895883EC0F3813FD1F772
:1029D000F5CF822F8695869586950895CF92DF92C2
:1029E000EF92FF926B017C010E949708B701A6014C
:1029F00088E090E0FF90EF90DF90CF900C946D34E2
:102A00005F926F927F928F929F92AF92BF92CF927E
:102A1000DF92EF92FF920F931F93CF93DF9300D03B
:102A20000F92CDB7DEB7182F762E042F622E90911D
:102A3000C50290FF29C0E92FE695AE2FB0E0AA5954
:102A4000BE4F8C91809341029E7F923081F59E0112
:102A50002F5F3F4F812F0E94AD084B8169818A8192
:102A60000E9411101093C6027092C7020093C80210
:102A7000662051F06091C5027091C6028091C70234
:102A80009091C8020E94EE140F900F900F90DF916A
:102A9000CF911F910F91FF90EF90DF90CF90BF905B
:102AA000AF909F908F907F906F905F90089582304D
:102AB00019F40091C802D6CF863019F41091C602DD
:102AC000D1CF8930D9F3893169F6E9518E2F8170E0
:102AD000582EE695F0E0ED58FB4FA590B490BB243E
:102AE00086E4E82E82E0F82ED12CC12C9FE0892EBE
:102AF000912CC601B4010E94A030812F511013C047
:102B0000860F9701402F672D0E94AD08CA0CDB1C71
:102B100083E0E80EF11C83E7E81682E0F80649F747
:102B20000E94390E9FCF861BECCFE5ECF2E043818B
:102B300028E0421B08F440E021E0628181810C948E
:102B40000015E5ECF2E0438128E0420F08F44FEF76
:102B500021E0628181810C940015E5ECF2E0628154
:102B600028E0621B08F460E021E0438181810C943D
:102B70000015E5ECF2E0628128E0620F08F46FEFE7
:102B800021E0438181810C940015E5ECF2E0818124
:102B900021E04381628188500C940015E5ECF2E05D
:102BA000818121E043816281885F0C9400158091CE
:102BB000C902882319F081508093C9026091C5022F
:102BC0007091C6028091C7029091C8020C94EE14D5
:102BD0008091C902833018F48F5F8093C90260919D
:102BE000C5027091C6028091C7029091C8020C94F0
:102BF000EE14E5ECF2E080818E7F8083608171814C
:102C0000828193810E94EE14109242022FE788E3A2
:102C100091E0215080409040E1F700C000000C940A
:102C2000390EE5ECF2E083E0808311828FEF82833E
:102C30008FE78383148260817181828193810C94F8
:102C4000EE14CF93DF93C1E8D2E060E0CE010E94A2
:102C50005B342196C11584E0D807B9F7DF91CF9195
:102C600008956F927F928F929F92AF92BF92CF9270
:102C7000DF92EF92FF920F931F93CF93DF938DE834
:102C8000C82E85E0D82E9DEDE92EF12CE701C6591E
:102C9000D10936011BC0F50185909490692DC801BA
:102CA0000E945B34682DC80101960E945B3482E06B
:102CB000A80EB11C0E5F1F4FC017D10761F78EE140
:102CC000680E711C6E96CE15DF0529F08E010E512F
:102CD00011095301E0CF7E0186E9E80EF11C86E977
:102CE000C80ED11C85E3E81683E0F80679F6DF917B
:102CF000CF911F910F91FF90EF90DF90CF90BF90F9
:102D0000AF909F908F907F906F9008956BEE7EEFC5
:102D100090E080E00E94793460E082E090E00E94E0
:102D20005B3460E083E090E00E945B3410924603E5
:102D300010924703109248031092490360E084E028
:102D400090E00E945B3460E081E290E00E945B349E
:102D500060E085E090E00E945B3460E086E090E017
:102D60000E945B346FEF87E090E00E945B3440E0AC
:102D700050E0BA0188E090E00E946D3460E08DE0A0
:102D800090E00E945B3440E050E0BA0188E190E0BE
:102D90000E946D3460E087E190E00E945B3440E087
:102DA00050E0BA018CE190E00E946D3460E080E276
:102DB00090E00E945B3440E050E0BA0188E190E08E
:102DC0000E946D3440E050E0BA018FE090E00E9434
:102DD0006D3440E050E0BA0183E190E00C946D3432
:102DE00010924403E0EEF1E086E0DF011D928A9547
:102DF000E9F70C946C091F93CF93DF93CDB7DEB73F
:102E0000AA970FB6F894DEBF0FBECDBF8DE593E055
:102E10002091F100DC012D93CD01B3E085369B07B5
:102E2000B9F780915E03833009F471C0B8F4813042
:102E300009F448C0823009F4B2C08091E80083FFF1
:102E40003AC180915D0390915E039A3008F033C1DE
:102E5000E92FF0E0EB55F94C0C94C8308A3009F4B6
:102E60008DC08B3009F470C0893039F780915D03D3
:102E7000813219F78091610390916203009711F0FC
:102E80000297D9F68091E800877F8093E8008091CF
:102E9000E80082FF37C09091F3008091F200029722
:102EA00029F48091F1008B7F813021F48091F10031
:102EB000809350038091E8008B778093E8000E9414
:102EC0006905BBCF80915D03813A09F0B6CF80914F
:102ED000E800877F8093E80080916103909162030E
:102EE000892B61F468E081E593E070E00E941B06A5
:102EF0008091E8008B778093E8009FCF60E090E0BE
:102F000080E0F3CF80915B038111C1CF96CF809198
:102F10005D03813A09F091CF809161039091620342
:102F2000892B09F08ACF8091E800877F8093E800A1
:102F30008091E80080FFFCCF80912C018093F1000C
:102F40008091E8008E77B9CF80915D03813209F0DE
:102F500074CF8091610390916203892B09F06DCF4A
:102F60008091E800877F8093E8000E946905809146
:102F70005F0380932C010E94F0165FCF80915D0368
:102F8000813209F05ACF8091E800877F8093E80072
:102F90000E9469058091600380934F034ECF80911A
:102FA0005D03813A09F049CF8091E800877F8093E3
:102FB000E8008091E80080FFFCCF80914F03BECFF6
:102FC000803899F0823809F076C0809161038F7063
:102FD000873008F070C08093E9008091EB0085FB9A
:102FE000882780F91092E90006C0809159039091DA
:102FF0005A03911182609091E800977F9093E800C6
:103000008093F1001092F1008091E8008E77B5C1B5
:10301000882309F4A2C1823009F04DC080915F037A
:103020008111A6C1809161038F702FEF280F263088
:1030300008F041C08093E9002091EB0020FF98C187
:10304000933031F48091EB0080628093EB0090C16B
:103050009091EB0090619093EB0021E030E001C093
:10306000220F8A95EAF72093EA001092EA008091F5
:10307000EB008860EACF81111EC010915F031F77BB
:103080008091E3008078812B8093E3008091E800B9
:10309000877F8093E8000E9469058091E80080FFA7
:1030A000FCCF8091E30080688093E30082E01111FF
:1030B00083E080935B038091E80083FF0AC08091E6
:1030C000E800877F8093E8008091EB008062809326
:1030D000EB00AA960FB6F894DEBF0FBECDBFDF910E
:1030E000CF911F9108958058823028F720915F0377
:1030F000309160032C3DE3E03E07A1F583E08A8335
:103100008AE289834FB7F894DE01139620E03EE00F
:1031100051E2E32FF0E050935700E49120FF03C009
:10312000E295EF703F5FEF708E2F90E0EA30C0F0D5
:10313000C7968D939D932F5F243159F74FBF809190
:10314000E800877F8093E8006AE270E0CE01019694
:103150000E941B068091E8008B778093E800ABCF3C
:10316000C096E7CF8091610390916203432F55276A
:103170004330510509F44AC078F54130510509F44E
:103180007AC08BE590E0E5E9F8E04230510509F0BE
:1031900092CF2091E800277F2093E80020916303DD
:1031A000309164038217930708F49C0140E02115D5
:1031B000310509F065C0411163C08091E80082FDCE
:1031C000C9CF80915B03882329F2853019F2809161
:1031D000E80083FFF2CFBECF4132510509F43CC075
:1031E0004232510509F067CF8330910508F063CF73
:1031F000FC01EE0FFF1FE153FE4F0190F081E02D27
:1032000084539E4FDC018C9190E01AC0332721300B
:103210003105D1F02115310561F02230310509F079
:103220004ACFE2E0F9E0E4918E2F90E0E2E0F9E0AD
:1032300007C0E8E4F9E0E4918E2F90E0E8E4F9E0DB
:10324000009709F438CFA5CFECE1F9E0E4918E2F97
:1032500090E0ECE1F9E0F4CF8330910508F02BCF5A
:10326000880F991FFC01EB52FE4F0190F081E02D79
:1032700089E090E08ECF82E190E0E0EFF8E089CF46
:1032800080915B03882309F465CF853009F462CF10
:103290008091E80083FD5ECF8091E80082FD8DCFB4
:1032A0008091E80080FF83CF9091F3008091F2003D
:1032B0002115310519F08830910550F041E008974B
:1032C00009F040E08091E8008E778093E8006FCFAE
:1032D00044914093F1003196215031090196E8CF95
:1032E000803809F0E8CE8091E800877F8093E8007D
:1032F00080915C038093F10087CE8111DCCE109128
:103300005F03123008F0D7CE8091E800877F80936A
:10331000E80010935C030E946905112311F084E01A
:1033200005C08091E30087FDFACF81E080935B03C5
:1033300042E061EC81E00E94880542E261EC84E0B9
:103340000E94880542E261EC82E00E94880542E228
:1033500060EC83E00E948805AECE80915F038130EF
:1033600009F0A9CE81E0933009F080E080935A0300
:103370001092E9008091E800877F8093E8000E9426
:10338000690599CE0F931F9341E050E060E070E033
:103390008A019B0104C0000F111F221F331F8A9551
:1033A000D2F7C901B8010E940B0A1F910F910C942A
:1033B000F016EBEFE80FEF3308F073C0F0E0E155E3
:1033C000F94C0C94C8300E94861681E008958091D3
:1033D000400390914103009759F0909336028093F7
:1033E00035020E94F0161092410310924003EDCF77
:1033F000809135029091360290934103809340036F
:10340000E4CF80913402807F8093340281E0809306
:10341000CB0208950E94F0162FE78AE196E0215032
:1034200080409040E1F700C000000E94150E90918E
:103430003402892F8E7F90FF81608093340280FD5B
:10344000C4CF817F80933402C0CF90913402892F02
:103450008D7F91FF82608093340281FFB6CF80918F
:1034600034028160EFCF90913402892F8B7F92FFDD
:1034700084608093340282FDF2CFA7CF9091340212
:10348000892F877F93FF88608093340283FDE7CF85
:103490009CCF80E00E94C21998CF8953FBCF8D51F9
:1034A000F9CF80E008954F925F926F927F928F9252
:1034B0009F92AF92BF92CF92DF92EF92FF920F93C3
:1034C0001F93CF93DF93FC016280448081E084836B
:1034D000EDE8F4E07490ECE0F5E0E491C3E7D2E0CD
:1034E00036E4E32E32E0F32E4EEBC42E42E0D42E2F
:1034F00052E0A52EBB24B39488248A94912C5524A1
:103500005A94E7190E2F10E082E0861530F0809172
:10351000C60288838091C7028983411021C01B8223
:103520001A8297014A81698188810E94AD08259697
:1035300083E0E80EF11CCC16DD0631F7DF91CF9168
:103540001F910F91FF90EF90DF90CF90BF90AF90C1
:103550009F908F907F906F905F904F900C94390E5A
:103560008B818823E9F081508B83859DC0011124D4
:103570006C8170E00E94A030FB01FF27E357FB4FF6
:103580008491E82FE719E59DC0011124B8010E943C
:10359000A0308091C802689FB00111247A83C1CF06
:1035A0000E9467312091C802269521582A9DA001CA
:1035B0002B9D500D1124452F5527841795070CF08E
:1035C000B0CF82E0861588F40E946731B4010E9472
:1035D000B43088830E9467312091C7022695622FFC
:1035E00070E00E94B430280F29831A828091C802AB
:1035F000893C20F088EC8C838B8393CF8431D8F77F
:1036000084E1F9CF9091C50290FF3DC09170811186
:1036100029C092609093C502662351F06091C50263
:103620007091C6028091C7029091C8020E94EE1468
:103630006091C502669570E04BE050E088E191E052
:103640000E949D31892BA9F01092420281E0809363
:103650003E0220E04091C8026091C7028091C602FC
:103660000C9400158B3210F09465D4CF880F982BF2
:10367000D1CF81E0809342020E94970690933C0252
:1036800080933B02E3CF08958091C50286958150D7
:1036900009F48AE261E00C94021B8091C5028695D0
:1036A0008F5F8B3208F081E061E00C94021B9091F7
:1036B000C50290FF07C09695981720F0961710F452
:1036C0000C944D1B61E00C94021BCF93DF9300D050
:1036D0000F92CDB7DEB71F928F938AE491E09F934C
:1036E0008F93CE0101969F938F930E94B53189816C
:1036F0000E94480D8A810E94480D0F900F900F90F4
:103700000F900F900F900F900F900F90DF91CF912F
:103710000895CF93DF93EC018091F8019091F90126
:103720008C179D0709F469C0D093F901C093F80183
:10373000C23ED10509F445C0C93ED10509F441C0D6
:10374000CA3ED105F1F1C53BD105D9F1C63BD10542
:10375000C1F1C73BD105A9F1CC3CD10509F441C069
:10376000CD3CD10571F1C33881E0D80751F1CA3899
:1037700081E0D807C9F1C23981E0D80711F1C43915
:1037800081E0D807A1F1C13282E0D80799F1C332B4
:1037900082E0D807B1F0C43282E0D80791F0C53298
:1037A00082E0D80771F0C63282E0D80751F0C73204
:1037B00082E0D80731F0CA3282E0D80711F0D0E0B9
:1037C000C0E085EA91E00E94600D8D2F0E94651B8C
:1037D0008C2F0E94651B82EA91E0DF91CF910C94BF
:1037E000600DC8EBD0E0EDCFCCE8D1E0EACFC6E980
:1037F000D1E0E7CFCFE1D2E0E4CFDF91CF910895E0
:103800000F931F93CF93DF93D82FC92F8EE891E0AA
:103810000E94600D0D2F1C2FC0E0F80181918F01D7
:103820000E94651BC73021F08CE891E00E94600D7A
:10383000CF5FC83091F789E891E0DF91CF911F9178
:103840000F910C94600D8F929F92AF92BF92CF9286
:10385000DF92EF92FF920F931F93CF93DF93CDB739
:10386000DEB7EA970FB6F894DEBF0FBECDBF853145
:1038700009F4B6C058F48A3009F4DBC08B3009F47F
:10388000F5C0853009F4CEC080E097C08B3109F4D3
:1038900093C008F08DC08931B9F71A8E1BAA83E056
:1038A00093E00E94600D7E012AE1E20EF11C5E01B0
:1038B00082E3A80EB11C9E2C8F2C6701EA14FB0436
:1038C00089F0F89490910C0280910B0298138BC0B0
:1038D0000E948E0C80E091E0D7018D937D018D30A8
:1038E00009F099C0F6011082F89480910B02809340
:1038F0000C020E948E0C892D982D0E9477318C51DC
:103900009340BC01990F880B990B0E949C3520E0D5
:1039100030E048EC52E40E94283620E030E048EEE7
:1039200052E40E94F2340E9464358E010D5C1F4FF8
:103930001616170684F47F936F938FE491E09F939C
:103940008F931F930F930E94B5310F900F900F909C
:103950000F900F900F908FE0E1E3F1E0DE01119600
:1039600001900D928A95E1F7FE0170968AE0DF01E1
:103970001D928A95E9F7B801CE0101960E94AA31FD
:103980006DE271E0CE0101960E94AA318E010F5FB7
:103990001F4FF80181918F01811141C0FFEF21EE8E
:1039A00084E0F15020408040E1F700C0000004C0F6
:1039B0008F52823008F068CF81E0EA960FB6F89413
:1039C000DEBF0FBECDBFDF91CF911F910F91FF9052
:1039D000EF90DF90CF90BF90AF909F908F90089521
:1039E0000E942711E9CF00910B0210E00F5F1F4FDB
:1039F0000F70112700930B020E948E0CF801E55006
:103A0000FE4F80812091FA0130E0322F2227820F71
:103A1000932F911D61CF8A3009F04FCF63CF0E9461
:103A2000480DB7CF8091120291E08927809312024E
:103A3000C3CF2A9A0E94F9158FE090E00E944F347C
:103A400070930F0280931002909311026D7F609328
:103A50000E0240910E0250910F026091100270917F
:103A600011028FE090E00E946D34A6CF2A988091D9
:103A7000C50281608093C50261E086950E94021BA9
:103A80008FE090E00E944F3470930F0280931002F9
:103A9000909311026260DBCFCF93C82F882309F483
:103AA00097C08238C1F40E94E00781FD91C089E38C
:103AB0000E9428070E94EE062FEF80E792E0215037
:103AC00080409040E1F700C0000089E30E941B079E
:103AD000CF910C94EE068338A1F40E94E00780FD9C
:103AE00077C083E50E9428070E94EE062FEF80E74B
:103AF00092E0215080409040E1F700C0000083E553
:103B0000E5CF8438A1F40E94E00782FD61C087E41C
:103B10000E9428070E94EE062FEF80E792E02150D6
:103B200080409040E1F700C0000087E4CFCF8CEFE9
:103B30008C0F813A08F090C08091CB02813019F14E
:103B4000882329F08230E1F11092CB020EC08091DF
:103B50004403823251F48C2F0E94231C811120C017
:103B60008C2F0E94D919817099F5E0EEF1E08191D6
:103B7000C81709F4A5C021E0E63EF207C1F78C2F73
:103B80000E942807A5CF80914403823221F3C431DB
:103B900081F048F4CB3059F0C03171F080E0E3CFD0
:103BA00081E090E0E0CFC93221F0C833B9F781E07D
:103BB000DACF1092CB02F2CF82E08093CB02F7CF24
:103BC000C93221F190F4C43109F120F4C73089F1F0
:103BD000CF910895CE51C630D8F7EC2FF0E0EF56D4
:103BE000FE4F80818093CA02F3CFCE3401F140F4BE
:103BF0006AE0CB3469F78091CA02CF910C94180C1B
:103C0000C13579F061E0C235B1F3E2CF8091CA02EB
:103C1000882319F01092CA02DBCF81E08093CB0297
:103C2000D7CF61E08091CA02CF910C94C80B6AE0B3
:103C3000F9CF8EE180932B0182E380932A018AE001
:103C40008093290184E18093280188E080932701F3
:103C500088E280932601BCCF80E28C0F883068F424
:103C6000C77021E030E001C0220FCA95EAF78091C9
:103C70004403822B809344032BCFEBE5EC0FE3301E
:103C800040F4F0E0E556FE4F808190E0CF910C9437
:103C9000CA07E8E5EC0FE73150F4F0E0EE0FFF1F44
:103CA000E256FE4F80819181CF910C94B407C03FC2
:103CB00008F48ECF8C2F0E946E0BCF910C94450987
:103CC0008C2F0E941B070E94EE0659CF1F93CF93A3
:103CD000DF93182FD0E0C0E0893311F4C0E5D0E0C5
:103CE000812F0E944C1D209731F4812FDF91CF91BD
:103CF0001F910C948E0A8FEC97E00197F1F700C0AA
:103D000000002197F0CF0F931F93CF93DF93C62F1F
:103D1000D42F022FFC0182818823A1F060936B03D2
:103D20000E94970690936A0380936903C77081E0AD
:103D300001C0880FCA95EAF7DF91CF911F910F91CB
:103D40000C94AA0780916B03681335C080916903B6
:103D500090916A030E947C06883C910560F510E210
:103D60001D0FCD17B9F080E28C0F883040F4C7707A
:103D700081E001C0880FCA95EAF70E949F071830BA
:103D800048F481E09D2F977001C0880F9A95EAF75B
:103D90000E94AA07802F0E94661E183098F4D770E0
:103DA00081E001C0880FDA95EAF7DF91CF911F918A
:103DB0000F910C949F07C77081E001C0880FCA95CE
:103DC000EAF7F3CFDF91CF911F910F9108953F92C2
:103DD0004F925F926F927F928F929F92AF92BF921B
:103DE000CF92DF92EF92FF920F931F93CF93DF93C7
:103DF00000D000D00F92CDB7DEB78C01FC018381DB
:103E00009481892B31F08081918189238F3F09F042
:103E10002EC60F900F900F900F900F90DF91CF91C3
:103E20001F910F91FF90EF90DF90CF90BF90AF90D8
:103E30009F908F907F906F905F904F903F900895EC
:103E40000E947E14F82E682F89819A810E9469074A
:103E500069817A818F2D0E94E7127C01F8018281AD
:103E6000882309F4F6C5970122513F4520313105D9
:103E700008F088C58FEF93E00E944734FEEEEF0E06
:103E800051E8852E52E0952E882381F180913F03E1
:103E9000877009F4BECFF8018281882309F4B9CF75
:103EA00082E00F900F900F900F900F90DF91CF91C5
:103EB0001F910F91FF90EF90DF90CF90BF90AF9048
:103EC0009F908F907F906F905F904F903F900C9459
:103ED000D209811424E09206C9F2C4010E94473439
:103EE000811101C0EA943FEF831A930AE110F1CFE8
:103EF0001C821B82442443944AE0342E74018FEFC9
:103F0000E81AF80AC4010E94473489831A82882378
:103F100009F4BCCF9FEF980F933000F58A83498254
:103F200092E0890E911CC7010E9447348B8388233D
:103F300009F4ACCFFE0131967F01F70120812223E5
:103F4000E9F2213009F049C091818281913041F438
:103F5000F2E0EF0EF11C0E94661E09C04701EACF95
:103F6000923049F422E0E20EF11C0E944C1D3FEF1A
:103F7000E31AF30AE2CF933031F432E0E30EF11C9E
:103F80000E948E0AF4CF943021F08FEFE81AF80ADD
:103F9000EECF92E0E90EF11C30E020E0B7016F5F58
:103FA0007F4FF70141818053990B8A30910550F082
:103FB00021503109E0F28FEC97E00197F1F700C052
:103FC0000000F6CF329EF001339EF00D11249C01CB
:103FD0002E0F3F1F842F7B01E1CFE22FF0E0EB5E3D
:103FE000F74F5490822F86958695869590E0FC0138
:103FF000EB5FF74F64902770712C022E02C075940E
:1040000067940A94E2F7E1E06E227724FC01EB501A
:10401000F84FA490B12C022E02C0B594A7940A9434
:10402000E2F7F1E0AF22BB24FC01EB51F84FC49062
:10403000D12C02C0D594C7942A95E2F721E0C22280
:10404000DD246114710419F081EE0E944C1DA1144D
:10405000B10419F086EE0E944C1D852D0E94661E4B
:10406000AB2819F086EE0E948E0A672819F081EEBF
:104070000E948E0ACD2809F47ACF8CE26CCF81E0C1
:104080000E94EA090E94930901CF81E00E94AF09D2
:10409000F9CF82E0F5CFE3EFEE16ECE5FE0661F135
:1040A000A0F428EDE2162CE5F20611F139EDE31645
:1040B0003CE5F30669F187EDE8168CE5F80609F0B2
:1040C00075C426E241EE61EE0FC095EFE9169CE55E
:1040D000F906D1F0A8F027E245EE66EEF6EFEF160E
:1040E000FCE5FF0609F062C4C8010E94831ECECE23
:1040F00027E245EE65EEF8CF26E241EE60EEF4CF22
:1041000027E245EE64EEF0CF26E241EE62EEECCF20
:1041100028E241E0EFCF8091C202806196E0E9168B
:104120009CE5F90609F4A2C08091C2028860E7E02C
:10413000EE16ECE5FE0608F499C08091C20280629A
:1041400095C08091C2028D7FFCE0EF16FCE5FF0672
:1041500009F48CC078F48091C2028C603AE0E316D6
:104160003CE5F30609F482C008F493C08091C202D2
:104170008E7F7CC08091C202877F9EE0E9169CE51D
:10418000F90609F473C08091C2028B7FEFE0EE164E
:10419000ECE5FE0608F46AC08091C2028F7E66C01C
:1041A000FBEFEF16FCE5FF0609F46BC068F533E1A1
:1041B000E3163CE5F30609F47AC090F491E1E916C0
:1041C0009CE5F90609F46FC0E2E1EE16ECE5FE06A7
:1041D00009F02FC40E94F0168091C2028F7746C06A
:1041E000F5E1EF16FCE5FF0609F469C008F47DC0AF
:1041F0008091C30281603AEFE3163CE5F30609F0D3
:1042000018C48093C30215C48FEFE8168CE5F80636
:1042100009F451C0A0F48091C3028D7FEDEFEE163A
:10422000ECE5FE0671F38091C3028E7FFEEFEF1680
:10423000FCE5FF0630F38091C3028360E2CF21E00A
:10424000E2162DE5F20609F459C008F444C060E016
:1042500082E0E8168DE5F80609F0EBC38EE090E009
:104260000E945B34E6C38091C20281608093C202E7
:10427000E0C38091C2028260F9CF8091C202846063
:10428000F5CF8091C3028260BCCF8091C20280646E
:10429000EDCF0E94F0168091C2028068E7CF809136
:1042A000C2028F7DE3CF8091C2028F7BDFCF8091EE
:1042B000C202837FDBCF8091C3028C7FA2CF80912B
:1042C000C20282FB992790F921E0922790FB82F9A4
:1042D00090FB83F9CBCF8091C302982F909591707A
:1042E0008E7F892B90FB81F98CCF0E94F0169091E4
:1042F000C202892F97FB87F98058B8CF61E0AECF13
:1043000080914403E6E1EE16ECE5FE0609F0CEC32B
:104310008A7A91E009F490E09093C402811106C07A
:1043200089E20E9428070E94EE06B0CD85E3F9CF0E
:1043300085E3B9C38091C50280FF03C00E94F915CF
:10434000A5CD81608093C50261E086950E94021B25
:104350009DCD44E45BE16DE47BE10E94EC0796CDEA
:104360004DE45BE164E47BE1F8CF45EC55E16EECB4
:1043700075E1F3CF4EEC55E165EC75E1EECF4DEA1A
:1043800055E169EB75E1E9CF49EB55E16DEA75E17E
:10439000E4CF45E955E161EA75E1DFCF41EA55E156
:1043A00065E975E1DACF47ED55E168EE75E1D5CF06
:1043B00048EE55E167ED75E1D0CF61E081E0C6CF11
:1043C00065E082E00E94571B61CD68E086E0FACF8D
:1043D0006EE089E0F7CF64E18FE0F4CF67E185E13B
:1043E000F1CF61E088E1B2CF62E289E1EBCF61E039
:1043F00083E2ACCFE114FCE5FF0609F447C02EEDE3
:10440000E2162CE5F20609F44EC0F801E080F180D6
:10441000992309F44BC0C7010E947E14D82E682F3F
:10442000C7010E946907B7018D2D0E94F4127C011B
:10443000882EF801D280A580A2943FE0A32280912B
:104440003F038770A1F0CD2CDD2091F08F2D807F70
:10445000803421F080E28E0D883048F082E00E94A6
:10446000D20980913F038770CC24C3948111C12C61
:104470003F2C32942FE03222FBE0F31508F452C0B7
:10448000E32DF0E0E251F94C0C94C8300E94F01694
:104490003FE78AE196E0315080409040E1F700C06C
:1044A00000000E94150E0E948616F0CCC7010E94E3
:1044B0004107D82EB8CF2F2D2F70A22E8F2D807FA1
:1044C00019F0A29490EFA922DD20C9F0AA2069F08A
:1044D00080E28E0D883010F081100BC08091440373
:1044E000A82AA09244030E94EE068E2D0E944C1D25
:1044F00019C080914303A82AA0924303F4CF8E2DC4
:104500000E948E0AAA2071F0A09480E28E0D88305D
:1045100010F081103FC080914403A822A092440370
:104520000E94EE06232D2850330B2430310520F451
:104530000E94E0070E94EA0CCC2009F46ACC80912A
:104540003F0380FD66CCF80112828595859585959F
:104550000E94EA09C8010E94E71E80913F038595E9
:10456000859585950F900F900F900F900F90DF918C
:10457000CF911F910F91FF90EF90DF90CF90BF9060
:10458000AF909F908F907F906F905F904F903F90F3
:104590000C94AF0980914303A822A0924303C0CF9B
:1045A0003F2D3F70932E8F2D807F803219F0929493
:1045B00080EF9822882071F081E0881661F1DD207B
:1045C000B9F1AA2071F1F801858180FF8ECF8F703B
:1045D000858327C0DD2091F090914503892D892B9B
:1045E000A11003C00E94AA079DCFE1E0AE12FACF4E
:1045F000981709F497CF8093450394CFA11006C074
:104600000E94E806892D0E949F078CCFF1E0AF162B
:1046100009F488CFF5CFDD2031F025E02A1508F424
:1046200081CF892DDFCF34E03A1508F47BCFEACF74
:10463000AA2041F3F9E38F1209C02FEF33EF81E095
:10464000215030408040E1F700C000008E2D0E94D4
:104650008E0A68CF8F2D86958695837061F08130A4
:1046600009F060CFC7019370D11002C090E080E0E4
:104670000E94B40757CFC7019370D11002C090E0D9
:1046800080E00E94CA074ECF8E2DDD2029F00E94C7
:104690006E0B0E94450946CF0E94150AFACF8F2D56
:1046A000837009F066C0D1103DCF8E2D829586951E
:1046B0008770880F880F6E2D6F70462E512C712CCD
:1046C000612C082E04C0440C551C661C771C0A94EF
:1046D000D2F740E050E0BA01E4FE0FC04FE050E0F6
:1046E00060E070E004C0440F551F661F771F8A9575
:1046F000D2F740955095609570958F2D869586954B
:104700008370823019F1D8F480904603909047036B
:10471000A0904803B0904903813069F0442955299D
:1047200066297729CB01BA01682179218A219B2149
:104730000E940B0AF7CE482859286A287B28CB010B
:10474000BA016429752986299729F2CF4429552968
:1047500066297729409046035090470360904803AC
:1047600070904903CB01BA016425752586259725EC
:10477000DFCF8695DD2011F08F2D8170882309F41D
:10478000D1CE8E2D829586958770880F880F6E2DDD
:104790006F70462E512C712C612C082E04C0440CD5
:1047A000551C661C771C0A94D2F740E050E0BA0111
:1047B000E4FE0FC04FE050E060E070E004C0440F42
:1047C000551F661F771F8A95D2F7409550956095C3
:1047D00070958F2D869586958370823019F1D8F467
:1047E0008090650390906603A0906703B090680383
:1047F000813069F04429552966297729CB01BA010E
:10480000682179218A219B210E9489098BCE482821
:1048100059286A287B28CB01BA0164297529862981
:104820009729F2CF442955296629772940906503B5
:10483000509066036090670370906803CB01BA01E3
:104840006425752586259725DFCF9F2D9F70F92E2E
:10485000DD2029F0892F0E94EA098E2DC3CE8E2DEE
:104860000E949F078F2D0E94AF095CCE8E2DE2EF34
:104870008E1609F453C0E81578F0F0EF8F1629F181
:1048800021EF821609F442C0DD2009F46BC0A110AB
:104890002CCE8F2D8F713FC033EF831609F443C0A8
:1048A00094EF8912F1CFDD2009F451C02F2D2F7123
:1048B000F22E822F0E94EA0938E0F39EC0011124F3
:1048C000836080933F038F2D26C0DD20D1F0E4E08C
:1048D000EA1508F427CE2F2D2F7161E070E080E0FB
:1048E00090E004C0660F771F881F991F2A95D2F7A2
:1048F0004090650350906603609067037090680372
:104900009FCFF5E0FA1508F40DCEE5CF8F2D8F710E
:10491000DD2009F4A8CF0E94EA0904CE8F2D8F7103
:10492000DD20C9F3A0CF60E070E0CB01DD2009F409
:104930006BCF2F2D2F7161E070E080E090E004C01C
:10494000660F771F881F991F2A95D2F75DCF81E0E8
:104950000E94D20981E08A1508F0E4CD82E00E942D
:10496000D209E0CDAA2059F0893309F06FCE9FEF2C
:10497000E3EFF1E09150E040F040E1F765CE8F2D9C
:104980008F7171CFF0E1EF16FFE5FF0609F477CBE9
:1049900021E1E2162FE5F20609F47BCB90E7E91658
:1049A000F10409F078CB81110E942711F80192815E
:1049B000992309F46DC010926B03F2E0EF16FCE549
:1049C000FF0608F49DCC26E1E2162CE5F20638F04D
:1049D00097012A5F3C452930310508F091CC0E94AF
:1049E000B3129093C3028093C20230E1E3163CE518
:1049F000F30609F454CC08F0D3CB98E0E9169CE513
:104A0000F90609F442CC08F09CCBF4E0EF16FCE583
:104A1000FF0609F432CC08F07ECB32E0E3163CE529
:104A2000F30609F420CC83E0E8168CE5F80609F4D7
:104A300020CC6091C202F090C30284E090E00E941A
:104A40005B346F2D81E290E00E945B340E94F0168F
:104A50001DCA30E1E3163FE5F30609F416CB91E1F8
:104A6000E9169FE5F90609F099CF82E00FCB85E0C2
:104A7000DE01119601900D928A95E1F7F8012281ED
:104A800089819A812111DCC90E944107F82EE0C971
:104A9000F6E1EF16FCE5FF0609F0B7CC8091C40201
:104AA000811146CC89E20E941B073DCC8272F7013E
:104AB000E25CFC45E431F10508F09CCCE650F94C91
:104AC0000C94C8301F93CF93DF938091DA02807FDC
:104AD000A9F48091D702882389F080910C03D091AA
:104AE000DB026091D5027091D602A091D802B091FC
:104AF000D902C62FC72316E0D81304C0DF91CF9187
:104B00001F91089590E0109711F0CF3F19F401968E
:104B10008770F2CF189F9001199F300D1124F90171
:104B2000E452FD4F41814713F2CF40814613EFCF4E
:104B300042814111ECCF438154814A1B5B0B483CBD
:104B4000510528F78091DA028F7080618093DA0234
:104B5000F901EF51FD4F80818F708061808385ED79
:104B600092E00E94E71EDF91CF911F910C94950770
:104B7000AF92BF92CF92DF92EF92FF920F931F936B
:104B8000CF93DF93CDB7DEB761970FB6F894DEBF52
:104B90000FBECDBF8C0185E0F801DE011D960190AE
:104BA0000D928A95E1F7F80180819181E28025EDEF
:104BB000A22E22E0B22E6091D8027091D902611526
:104BC000710509F43EC13091D5024091D602232FE0
:104BD00024232F3F09F435C1C380D480F090D7023D
:104BE000F601E61BF70BFF2009F4FBC02091DA0267
:104BF000522F507FE83CF10508F0BBC0511178C03E
:104C0000FE2C491321C038131FC0E1101DC02F70A6
:104C100020612093DA02C5010E94E71E8091DA022A
:104C2000F80185838F2D61960FB6F894DEBF0FBE15
:104C3000CDBFDF91CF911F910F91FF90EF90DF904B
:104C4000CF90BF90AF900895CD2829F0282F292329
:104C50002F3F09F014C120E0F22FF170DF2E20FF6A
:104C60003DC020910C034091DB0256E0241315C097
:104C70008D879E878D859E850E94C014292F229541
:104C80002F702230F8F0243020F59F70F9F0F801F1
:104C90009581907FD9F4D12C1FC030E0529FF00154
:104CA000539FF00D1124E452FD4F6181961306C00D
:104CB0006081861303C06281E61210C02F5F3F4FF0
:104CC0002770D4CF9F7011F0882329F3805E88303D
:104CD00010F3C8010E94E71EFD2CA4CFEE2009F4BA
:104CE000A1CF8091DA0281608093DA02F12C9ACF11
:104CF000491312C0381310C0E1100EC0F80125830B
:104D0000C8010E94E71E86E0F801A5EDB2E001901F
:104D10000D928A95E1F786CF8D879E878D859E853A
:104D20000E94CA14882309F1EE20F9F08091DA027A
:104D3000803270F02091D5023091D60238872F83CF
:104D40001986DB86CA868C87CE0107960E94E71EED
:104D500086E0F801A5EDB2E001900D928A95E1F7A9
:104D60000E946225FF24F3945DCFC8010E94E71ED4
:104D7000F9CF51110AC085ED92E00E94E71E86E04E
:104D8000F50111928A95E9F7B1CF49130FC0381395
:104D90000DC0E1100BC0F8012583C8010E94E71E79
:104DA00086E0F50111928A95E9F73CCF8D879E87C1
:104DB0008D859E850E94CA148823B9F2EE20A9F23F
:104DC0008091DA02803220F22091D5023091D60211
:104DD0003A8329831B82DD82CC828E83CE010196A9
:104DE000B5CFE83CF105E0F6FE2CEE2009F4BDCF8E
:104DF000491316C0381314C08091DA0280FD83CFA6
:104E0000982F907F09F47FCFF8018583903F09F4B4
:104E100077CF982F907F905F8F70892B858370CF8D
:104E20008D879E878D859E850E94CA14811190CFA3
:104E30008091DA0281608093DA02C8010E94E71E45
:104E4000F1CEEE2009F491CF8D879E878D859E85CA
:104E50000E94CA14F82E882309F487CF86E0F8014F
:104E6000A5EDB2E001900D928A95E1F78091D5020F
:104E70009091D6020E94C0140E946225D3CE21E0F8
:104E80002E25EACE1F93CF93DF93CDB7DEB767977A
:104E90000FB6F894DEBF0FBECDBF342F4B8B252F3E
:104EA0005C8B6D8B7E8B8F8B8E899F8961111092AD
:104EB00043031A8A198A3D872E876F87998B888BBF
:104EC00086E0FE013D96DE01179601900D928A95CF
:104ED000E1F7CE0107960E94B825882389F016E0F5
:104EE00080910C039091DB02891349C067960FB63D
:104EF000F894DEBF0FBECDBFDF91CF911F91089513
:104F000086E0FE013796DE01119601900D928A959A
:104F1000E1F78A859B85892B11F38F8198858923F9
:104F20008F3FE9F22091DB0230E0C90101968770E2
:104F3000992740910C034817190671F40E94F01646
:104F40001092DB0210920C0386E0E5EDF2E0DF0147
:104F50001D928A95E9F7C3CF96E0929FD001939F67
:104F6000B00D1124A452BD4FFE01319601900D9257
:104F70009A95E1F78093DB020E949507B0CF819F5D
:104F8000C001112484529D4F0E94B825882309F442
:104F9000ADCF80910C0390E00196877099278093A4
:104FA0000C039ECF1F920F920FB60F9211242F93D6
:104FB0003F934F935F936F937F938F939F93AF93A1
:104FC000BF93CF93DF93EF93FF93D091E900DF700E
:104FD0008091EC00C82FC17080FDC0E81092E900FC
:104FE0008091F000877F8093F00078940E94FB16F8
:104FF0001092E9008091F00088608093F000CD2B42
:10500000CF70C093E900FF91EF91DF91CF91BF91F5
:10501000AF919F918F917F916F915F914F913F9150
:105020002F910F900FBE0F901F9018951F920F9207
:105030000FB60F9211242F933F934F935F936F936B
:105040007F938F939F93AF93BF93EF93FF93809141
:10505000E10082FF09C08091E20082FF05C08091DB
:10506000E1008B7F8093E1008091DA0080FF23C014
:105070008091D80080FF1FC08091DA008E7F8093DE
:10508000DA008091D90019BC80FF98C082E089BD08
:1050900009B400FEFDCF81E080935B0380914E0355
:1050A000811109C00E94EF040E94BA058091E200BC
:1050B00084608093E2008091E10080FF17C08091BE
:1050C000E20080FF13C08091E2008E7F8093E200B7
:1050D0008091E20080618093E2008091D80080623C
:1050E0008093D80019BC85E080935B038091E10038
:1050F00084FF28C08091E20084FF24C019BC82E0B4
:1051000089BD89B5982F917080FFFBCF8091D80021
:105110008F7D8093D8008091E1008F7E8093E100A5
:105120008091E2008F7E8093E2008091E2008160B6
:105130008093E20080915C03882309F444C084E0FA
:1051400080935B038091E10083FF27C08091E200A0
:1051500083FF23C08091E100877F8093E10082E09C
:1051600080935B0310925C038091E1008E7F8093BB
:10517000E1008091E2008E7F8093E2008091E20066
:1051800080618093E20042E060E080E00E94880558
:105190008091F00088608093F000FF91EF91BF91C3
:1051A000AF919F918F917F916F915F914F913F91BF
:1051B0002F910F900FBE0F901F90189510925B03C8
:1051C00010924E0378CF8091E30087FD93E0909397
:1051D0005B03B8CF78941F921FB61F9211248F9350
:1051E0009F93AF93BF9380914A0390914B03A091FB
:1051F0004C03B0914D030196A11DB11D80934A034C
:1052000090934B03A0934C03B0934D03BF91AF9188
:105210009F918F911F901FBE1F9018951F921FB6D0
:105220001F9211248F939F93AF93BF9380914A0352
:1052300090914B03A0914C03B0914D034196A11D59
:10524000B11D80934A0390934B03A0934C03B093FA
:105250004D03BF91AF919F918F911F901FBE1F90E3
:105260001895CDB7DEB7E8970FB6F894DEBF0FBE3E
:10527000CDBF84B7877F84BF0FB6F894A89580917F
:105280006000886180936000109260000FBE80E82B
:10529000809361001092610085B7806885BF85B7F3
:1052A000806885BF86EE96E09093DD018093DC01F7
:1052B0006E9A7698229A2A980E94EF040E94BA0564
:1052C0008091E20084608093E200789480915B0397
:1052D0008823A1F01091E9001F709091EC00892FB4
:1052E000817090FD80E8182B1092E9008091E80011
:1052F00083FD0E94FB161F701093E90082E084BDBD
:1053000093E095BD9DE797BD80936E0087E30E9473
:10531000900C83E30E94900C80E30E94900C86E343
:105320000E94900C86E60E94900C07E511E0D801DF
:105330008D918D010E94900CB1E006361B07B9F7E4
:10534000109277031092760310926D0310926C0303
:10535000109279031092780310926F0310926E03EB
:1053600010927B0310927A031092710310927003D3
:1053700010927D0310927C031092730310927203BB
:1053800010927F0310927E031092750310927403A3
:105390000E94A810EFE1FEE43197F1F700C0000091
:1053A0000E94A81080916C0380FF2EC00E94F0160E
:1053B0008FE493E00E94600D8FE097E20197F1F790
:1053C00000C0000084E393E00E94600DAFE0B7E20C
:1053D0001197F1F700C0000089E193E00E94600D91
:1053E000EFE0F7E23197F1F700C0000086E193E0CB
:1053F0000E94600D83E193E00E94600D80E193E0E4
:105400000E94600D0E94150E90E080E00E945534CD
:105410008B3E9E4F11F00E94861682E290E00E9421
:105420004734813209F0F3C583E290E00E944734AB
:10543000883009F0ECC584E290E00E94473489325C
:1054400009F0E5C590E080E00E9455348B3E9E4F08
:1054500011F00E94861682E090E00E94473480930B
:1054600034020E94B3129093C3028093C20283E07D
:1054700090E00E944734682F70E090E080E00E9446
:105480000B0A80910D02811136C090E080E00E94ED
:1054900055348B3E9E4F21F00E9486160E941116B5
:1054A00088E090E00E944F346093C5027093C6027A
:1054B0008093C7029093C8026E7F71F40E94111608
:1054C00088E090E00E944F346093C5027093C6025A
:1054D0008093C7029093C8020E94970810924202DC
:1054E0008091C50280FF04C060E086950E94021B87
:1054F00081E080930D020E94F10C8EE091E0909388
:105500004103809340030E949F108FE090E00E942F
:105510004F3460930E0270930F02809310029093A9
:1055200011028CE090E80E946E0D4FE75AE186E090
:10553000415050408040E1F700C0000080E793E018
:105540000E94600D8DE693E00E94600D8AE693E074
:105550000E94600D66246394712CF4E04F2EF1E0FC
:105560005F2E33243394ACE6B3E0BEABADABFD01AC
:10557000019111910115110551F1309219020E940A
:10558000F10C80915B0390911802981739F180918A
:105590005B03813009F0B2C010923302809317028E
:1055A0000E94060D0E94FC0C0E94BA058091E0004A
:1055B00081608093E0008091E0008E7F8093E00026
:1055C0000E94F016509241034092400355C0B3E050
:1055D000E637FB0769F610921902D3CF80915B037F
:1055E00080915B03811125C01092170280914003C6
:1055F00090914103009709F442C08450914009F40E
:105600003EC00E94F10C0E94BA058091E0008160CA
:105610008093E0008091E0008E7F8093E0000E9404
:10562000F01650924103409240030E94F0160E94EF
:105630002B0D80915B03843009F060C02091400302
:10564000309141032115310509F458C080911202AF
:105650002E50314009F450C0811150C00E94FC0C02
:105660000E94060D309217020E94F0168EE091E023
:1056700090934103809340030E94F0163FC00E9424
:105680002B0D012BB1F6809133028111D2CF4091C5
:1056900013025091140260911502709116022FB7F7
:1056A000F89480914A0390914B03A0914C03B091E0
:1056B0004D032FBF841B950BA60BB70B8938934165
:1056C000A105B10508F4B5CF309233020E942B0D2D
:1056D00020E836E00FB6F894209361003093610023
:1056E0000FBE0E948B066093240270932502809364
:1056F0002602909327029DCF811162CF80915B0398
:1057000080931802E0903302E110B2C00E949F1013
:105710000E94A81081110E948B06E9E2F2E010E0DD
:1057200000E0702FADA9BEA98D919D91BEABADAB30
:10573000219131912817390709F4A6C12827392763
:1057400060E0EE24E394F12CA9014E215F21452B6A
:1057500009F494C169A37AA39C012E213F2191E011
:10576000232B09F490E09BA30E9497068160782F79
:105770009DA38CA349A15AA16BA18DA10E94422790
:10578000000F111FF801E75DFD4F80819181E82630
:10579000F926F182E0820E94F10786E0EFECF2E068
:1057A000DE01119601900D928A95E1F7E090D10209
:1057B000F090D2021091D3020091D4021092D10243
:1057C0001092D2021092D3021092D4028E2D8F2901
:1057D00009F47BC18091390290913A020E947C06C3
:1057E000AC019091CE02992309F465C180912A0100
:1057F0008417150608F069C19F3F19F09F5F9093C9
:10580000CE02EE2059F00E94240B9FEF1E140CF4E0
:1058100091E0899F802D11248093D102FF2059F0BF
:105820000E94240B9FEF1F140CF491E0899F802DA0
:1058300011248093D2023091D102332309F445C15F
:105840002091D202222309F440C145EB3403C00168
:105850001124992309F4ADC19093D10255EB25038E
:1058600090011124332309F4A8C13093D2022DC131
:1058700040912402509125026091260270912702E6
:105880002FB7F89480914A0390914B03A0914C0359
:10589000B0914D032FBF841B950BA60BB70B893E10
:1058A0009340A105B10580F02A9A80916400886038
:1058B0008093640080916400806480936400809190
:1058C000650088608093650072E5C72E71E0D72E71
:1058D00006E713E0F12CD6018D916D01E82FE295DA
:1058E000EF70F0E091A18F70430101C0880C8A95A0
:1058F000EAF7892F882981A382A1B82CB0948B2143
:1059000082A3B2E0BA95F1F700C067E571E030E03C
:1059100020E090E080E0DB01AD90BD01AA2DA295D2
:10592000AF70B0E090964C9150E0AA2DAF7002C0DD
:1059300055954795AA95E2F740FD5FC0A301022E59
:1059400002C0440F551F0A94E2F7842B952B2F5F5A
:105950003F4F2F303105F9F621A1B222B1A222A189
:10596000822A82A2F801208131818217930709F4EB
:1059700047C0918380838E2DF82A31F00E94FC0C61
:10598000109233020E94F10C0E5F1F4FF7E5CF1605
:10599000F1E0DF0609F09FCF8F2D0E94A3066AE198
:1059A000862E62E0962E2CE633E038AF2FAB10E067
:1059B00000E0202EAFA9B8ADED90FD90B8AFAFAB31
:1059C000F401C190D1904F01CE14DF04D9F40F5FE0
:1059D0001F4F0530110569F78FEF88AB89AB1AAA05
:1059E0000E9497068160782F9CAB8BAB48A959A980
:1059F0006AA98CA90E94422737C050E040E0A5CF99
:105A000080E0BACFCE24DF240E94FC0C90E080E03E
:105A10005301082E02C0AA0CBB1C0A94E2F796019F
:105A20002A213B21232B29F18BA72CA6EA20FB203E
:105A300081E0EF2809F480E08DA70E94970681603D
:105A4000782F9FA78EA74BA55CA56DA58FA50E945B
:105A50004227000F111FF801E65EFD4F8081918102
:105A6000A826B926B182A0828091330281117BCD14
:105A70004DCE01968F30910559F6A9CF6F5FEE0C90
:105A8000FF1C6F3009F060CE0F5F1F4F053011050E
:105A900009F047CE8FEF8EA38FA318A60E9497061A
:105AA0008160782F9AA789A74EA15FA168A58AA5D2
:105AB0000E94422770CE20912B01BAE02B9F9001CB
:105AC00011242417350708F499CE812F802B09F46F
:105AD00046C080913702909138020E947C069C015A
